:020000040800F2
:10000000B8140020D9090008390300083B03000890
:100010003F030008430300084703000800000000F6
:100020000000000000000000000000004B0300087A
:100030004D030008000000004F03000851030008B2
:10004000F3090008F3090008F3090008F3090008A0
:10005000F3090008F3090008F3090008F309000890
:10006000F3090008F3090008F3090008F309000880
:10007000F3090008F3090008F3090008F309000870
:10008000F3090008F3090008F3090008F309000860
:10009000F3090008F3090008F3090008F309000850
:1000A000F3090008F3090008F3090008F309000840
:1000B000F3090008D7060008F3090008F30900084F
:1000C000F3090008F3090008F3090008F309000820
:1000D000F30900084D090008F3090008F5060008B7
:1000E000F3090008F3090008F3090008F309000800
:1000F000F3090008F3090008F3090008F3090008F0
:10010000F3090008F3090008F3090008F3090008DF
:10011000F3090008F3090008F3090008F3090008CF
:10012000F3090008F3090008F3090008F3090008BF
:1001300000F002F800F04BF80AA090E8000C8244AE
:100140008344AAF10107DA4501D100F040F8AFF28B
:10015000090EBAE80F0013F0010F18BFFB1A43F0A5
:1001600001031847B8550000D8550000103A24BFC5
:1001700078C878C1FAD8520724BF30C830C144BF0C
:1001800004680C607047000000230024002500264E
:10019000103A28BF78C1FBD8520728BF30C148BFEA
:1001A0000B607047642904F0D384782904F00C852F
:1001B000002070471FB504F037FF04000020002125
:1001C00004F0C6FF401C60601FBD10B510BD04F0F8
:1001D0004BFF1146FFF7EEFF00F023F804F069FF34
:1001E00003B4FFF7F2FF03BC00F056FB10B541F675
:1001F0001F41092000F042FA4FF4165000F08BFA2C
:1002000026480021017003F069FB10BD24480068F6
:1002100018B901202149087002E000201F49087028
:10022000704700F0CFFA4FF4A06000F0F5FB4FF4F8
:10023000E13000F03FFB00F07DF900F0A1F9FFF79D
:10024000D5FF18A004F050FC22A004F04DFC23E0E0
:10025000FFF7DCFF114803F083FD002000F0AAF94E
:100260000446022C05D125A004F03EFC022003F038
:100270004BFB042C05D128A004F036FC002003F031
:1002800043FBC82000F0DBFA2A48006808B90120C7
:1002900000E0002027490860DAE7000000000020A5
:1002A000940123422D2D2D2D2D2D2D2DBBFAD6C79A
:1002B000D4C62DD0ADD2E9D2C6D6B24C4544B2E2B6
:1002C000CAD4CAB5D1E92D2D2D2D2D2D2D2D2D2D95
:1002D0000D0A00004B4559313A4169724C696E6B09
:1002E000C1ACBDD3C4A3CABD09204B45595F55500D
:1002F0003AB8B4CEBB0D0A0D0A0000005749464972
:10030000BDF8C8EB4169724C696E6BC1ACBDD3C41A
:10031000A3CABD0D0A00000057494649B8B4CEBB78
:10032000A3ACC7EBD6D8D0C2C5E4D6C3C1ACBDD34D
:100330000D0A000094812142704700BFFEE700BF14
:10034000FEE700BFFEE700BFFEE77047704770475B
:10035000704700000CB50020019000906C480068C8
:1003600040F480306A49086000BF6948006800F4C2
:10037000003000900198401C0190009818B9019835
:10038000B0F5A06FF1D16248006800F4003010B100
:100390000120009001E0002000900098012843D146
:1003A0005C48006840F010005A4908600846006840
:1003B00020F0030008600846006840F00200086072
:1003C00053484068524948600846406848600846BB
:1003D000406840F4806048600846406820F47C1023
:1003E00048600846406840F4E810486008460068E5
:1003F00040F08070086000BF4548006800F0007061
:100400000028F9D04248406820F003004049486085
:100410000846406840F00200486000BF3C48406821
:1004200000F00C000828F9D10CBD10B5FFF792FFC1
:1004300010BD10B53648006840F00100344908602E
:100440000846406834490840314948600846006819
:10045000324908402E4908600846006820F4802090
:1004600008600846406820F4FE0048604FF41F0012
:100470008860FFF7DAFF4FF000602949086010BD7F
:1004800010B5002100200022214B5B6803F00C0115
:1004900021B1042906D0082928D107E0214B224C9C
:1004A000236027E01F4B204C236023E0184B5B6840
:1004B00003F47010164B5B6803F48032022303EBE5
:1004C000904022B9194B4343174C23600DE0104B69
:1004D0005B6803F4003323B1144B4343124C236095
:1004E00003E0104B4343104C236003E00D4B0E4CD4
:1004F000236000BF00BF064B5B68C3F303130C4CC3
:10050000E15C094B1B68CB40074C236010BD000029
:1005100000100240002002400000FFF8FFFFF6FE3E
:1005200008ED00E000127A000400002000093D0000
:100530000800002008B50121482000F0F7FD202028
:10054000ADF8000010208DF8030003208DF80200A4
:100550006946094800F02EFB2021074800F0D7FB30
:100560002020ADF800006946044800F023FB20215C
:10057000024800F0CCFB08BD000C0140001801400F
:1005800008B50121442000F0D1FD1C20ADF8000089
:1005900048208DF803006946354800F00BFB012028
:1005A000ADF8000028208DF803006946314800F0BE
:1005B00001FB08BD10B5044614B101202E49087096
:1005C0002D480078002837D01021294800F085FBFD
:1005D00078B10821264800F080FB50B1042124485E
:1005E00000F07BFB28B10121224800F076FB0128B6
:1005F00022D10A2000F023F900201F4908701021A1
:100600001B4800F06AFB08B9012010BD08211848FA
:1006100000F063FB08B90220F7E70421144800F05A
:100620005CFB08B90320F0E70121124800F055FBFC
:1006300001281BD10420E8E710210D4800F04DFBF4
:10064000012813D108210A4800F047FB01280DD1E9
:100650000421074800F041FB012807D1012105488A
:1006600000F03BFB10B90120034908700020CCE7E3
:100670000018014000080140180000207FB5054621
:100680000C460121022000F05EFDADF80850ADF8E7
:1006900004400020ADF80A00ADF8060001A9144896
:1006A00000F07CFE01221146114801F0EEF91D20F8
:1006B0008DF8000000208DF8010003208DF8020065
:1006C00001208DF80300684600F0ABF901210848CD
:1006D00001F0C0F97FBD10B50121054801F083FC90
:1006E00028B10121024801F08FFC01F009FF10BD83
:1006F0000004004008B540F22551304801F048FEA2
:1007000040B12E4801F0C4FDC0B2009001216846FE
:1007100001F0CAFF08BD10B586B0044601210820CB
:1007200000F004FD0121880400F00DFD234801F0D4
:100730006FFC4FF48060ADF8100003208DF81200BC
:1007400018208DF8130004A91D4800F033FA4FF467
:100750000060ADF8100004208DF8130004A91848BB
:1007600000F028FA00940020ADF80400ADF806006F
:10077000ADF80800ADF80C000C20ADF80A00694691
:100780000E4801F088FC01210C4801F010FD012207
:1007900040F22551094801F016FD27208DF814007C
:1007A00002208DF8150003208DF8160001208DF829
:1007B000170005A800F035F906B010BD004800404C
:1007C000000C014010B56FF0040000F074F92E48E1
:1007D00000682E49B0FBF1F02D49087008460078FA
:1007E00000EB4001C1EBC0104FF6FF7101EAC00001
:1007F0002849088010BD0146254A12784A434FF027
:10080000E0235A6100229A611A46126942F00102FD
:100810001A6100BF4FF0E022106900F001021AB126
:1008200000F48032002AF5D04FF0E022126922F065
:1008300001024FF0E0231A6100229A6170470146DD
:10084000144A12884A434FF0E0235A6100229A6109
:100850001A46126942F001021A6100BF4FF0E0220D
:10086000106900F001021AB100F48032002AF5D0BC
:100870004FF0E022126922F001024FF0E0231A61EA
:1008800000229A61704700000400002000127A00E4
:100890001A0000201C00002000BF704700BF4A4A19
:1008A000128802F04002002AF9D0C2B2464B1B1D4A
:1008B0001A80704710B586B00446012144F2040046
:1008C00000F034FC4FF40070ADF8140003208DF8F4
:1008D000160018208DF8170005A93C4800F06AF9A9
:1008E0004FF48060ADF8140004208DF8170005A9BE
:1008F000364800F05FF925208DF8000003208DF8C0
:1009000001008DF8020001208DF80300684600F018
:1009100088F801940020ADF80800ADF80A00ADF8A1
:100920000C00ADF810000C20ADF80E0001A926480F
:1009300001F0B1FB012240F22551234801F043FCB4
:100940000121214801F033FC06B010BD10B540F282
:1009500025511D4801F01CFD10B31B4801F098FC07
:10096000C4B21B48008800F40040C8B91848008889
:1009700000F4804060B10A2C03D0002014490880A4
:1009800020E01348008840F400401149088019E035
:100990000D2C06D10E48008840F480400C49088098
:1009A00010E00B480088C0F30D000A490C540848B9
:1009B0000088401C0649088008460088C72801DDD9
:1009C0000020088010BD00000038014000080140F0
:1009D00024000020540000200948804709480047AF
:1009E000FEE7FEE7FEE7FEE7FEE7FEE7FEE7FEE7DF
:1009F000FEE7FEE704480549054A064B704700003C
:100A00003304000831010008B8020020B8140020A7
:100A1000B8040020B804002031490143314A116074
:100A2000704770B5002100230F22C47804B32D4C09
:100A3000246804F4E064C4F5E064210AC1F104030D
:100A4000CA40447804FA03F1847814402143090130
:100A5000254C0678A155047804F01F050124AC400C
:100A600005786D11AD0005F1E025C5F8004109E0FC
:100A7000047804F01F050124AC401C4D0678761163
:100A800045F8264070BD1A4A0A400243154B1B1F09
:100A90001A60704739B1134A121D12680243114B94
:100AA0001B1D1A6006E00F4A121D126882430D4B8F
:100AB0001B1D1A607047042808D14FF0E021096916
:100AC00041F004014FF0E022116107E04FF0E02116
:100AD000096921F004014FF0E02211617047000024
:100AE0000000FA050CED00E000E400E080E100E029
:100AF00080FFFF1F10B50446CC48844208D1012175
:100B0000042000F02DFB0021042000F029FB46E02A
:100B1000C748844208D10121082000F021FB0021B0
:100B2000082000F01DFB3AE0C248844208D10121B0
:100B3000102000F015FB0021102000F011FB2EE02A
:100B4000BD48844208D10121202000F009FB00218A
:100B5000202000F005FB22E0B848844208D10121A2
:100B6000402000F0FDFA0021402000F0F9FA16E0E4
:100B7000B348844208D10121802000F0F1FA00211D
:100B8000802000F0EDFA0AE0AE48844207D101214E
:100B9000801500F0E5FA0021A01500F0E1FA10BD83
:100BA00010B50121084600F0DBFA0021012000F019
:100BB000D7FA10BD2DE9F04102460025002600209D
:100BC00000230024002791F803C00CF00F0591F8D2
:100BD00003C00CF0100CBCF1000F03D091F802C060
:100BE0004CEA050591F800C0BCF1000F31D0146843
:100BF00000202BE04FF0010C0CFA00F3B1F800C01C
:100C00000CEA03069E4220D183004FF00F0C0CFA31
:100C100003F7BC4305FA03FC4CEA040491F803C053
:100C2000BCF1280F06D14FF0010C0CFA00FCC2F801
:100C300014C00AE091F803C0BCF1480F05D14FF091
:100C4000010C0CFA00FCC2F810C0401C0828D1D3DB
:100C50001460B1F800C0BCF1FF0F34DD546800200F
:100C60002EE000F1080C4FF0010808FA0CF3B1F87F
:100C700000C00CEA03069E4221D183004FF00F0C06
:100C80000CFA03F7BC4305FA03FC4CEA040491F8A0
:100C900003C0BCF1280F05D100F1080C08FA0CF8CC
:100CA000C2F8148091F803C0BCF1480F07D100F1DD
:100CB000080C4FF0010808FA0CF8C2F81080401C2C
:100CC0000828CED35460BDE8F0814FF6FF71018053
:100CD000022181700421C170704702460020936890
:100CE0000B400BB1012000E00020704701468868EE
:100CF00080B2704702460020D3680B400BB1012040
:100D000000E0002070470146C86880B2704701616A
:100D10007047416170470AB1016100E0416170476D
:100D2000C16070474FF480320A4382618161826101
:100D300082698269704702460020434B18684FF66B
:100D40008073184040EA021008433F4B1860704718
:100D50003E49C8617047F0B50A46002300240021CF
:100D6000002500F00046B6F1004F02D1364EF16981
:100D700001E0354E7168C0F3034583B200F44016BC
:100D8000B6F5401F08D121F070612F4E766826F02D
:100D900070662D4F7E6012E000F48016B6F5801F5D
:100DA00006D1032606FA05F4A14341F0706106E07E
:100DB000460D360103FA06F6B14341F0706122B1E7
:100DC000460D360103FA06F6314300F00046B6F14F
:100DD000004F02D11C4EF16101E01B4E7160F0BD6D
:100DE00030B500228B071C0F0F2303FA04F2164BB9
:100DF00008338C1053F824309343134C08348D106F
:100E000044F8253023468C1053F824308C07240FE7
:100E100000FA04F423430C4C08348D1044F82530B8
:100E200030BD0A49DC31086070470000000801400D
:100E3000000C014000100140001401400018014066
:100E4000001C014000200140000001400000204241
:100E5000DF48006840F00100DD490860084640684E
:100E6000DC490840DA49486008460068DA49084029
:100E7000D74908600846006820F4802008600846CA
:100E8000406820F4FE0048604FF41F0088607047FF
:100E9000CF49096821F48031CD4A116011460968B3
:100EA00021F480211160B0F5803F03D0B0F5802F90
:100EB0000ED106E0C649096841F48031C44A116088
:100EC00007E0C349096841F4A021C14A116000E06C
:100ED00000BF00BF704710B501460022002300206C
:100EE0004A11012A02D1BA4C236806E0022A02D133
:100EF000B74C236A01E0B64C636A01F01F0201247B
:100F000094401C400CB1012000E0002010BD38B519
:100F1000002000900024002500BF3120FFF7DBFFF8
:100F200005460098401C00900098B0F5A06F01D0D5
:100F3000002DF2D03120FFF7CEFF08B1012400E0F0
:100F40000024204638BD01460020A14A106820F048
:100F5000F80040EAC10010607047A049086070477F
:100F6000024600209A4B586820F47C1042EA0103A4
:100F70001843974B58607047984908667047014678
:100F80000020934A506820F00300084350607047E7
:100F90008F48406800F00C007047014600208C4AE2
:100FA000506820F0F0000843506070470146002070
:100FB000874A506820F4E06008435060704701465B
:100FC0000020834A506820F4605040EAC10050601D
:100FD000704729B17E4A527A02437D4B5A7204E02F
:100FE0007B4A527A82437A4B5A7270477B49D83196
:100FF0000860704701460020754A506820F4404060
:101000000843506070470021714A20321170704AC5
:1010100082F82010012802D004280AD104E001211E
:101020006B4A2032117005E00521694A20321170A7
:1010300000E000BF00BF704769490860704764491D
:10104000096A0143624A1162704765494439086080
:10105000704730B500210022002400235C4D6D68EC
:1010600005F00C0121B1042905D0082923D105E0A0
:101070005C4D056022E05B4D05601FE0544D6D68DE
:1010800005F47012524D6D6805F48034022505EBAD
:1010900092421CB9544D554305600BE04C4D6D68B0
:1010A00005F400351DB1504D5543056002E04D4D2E
:1010B0005543056002E04B4D056000BF00BF444D45
:1010C0006D6805F0F0010909484D6B5C0568DD406D
:1010D00045603F4D6D6805F4E061090A434D6B5C66
:1010E0004568DD4085603A4D6D6805F46051C90A78
:1010F0003E4D6B5C4568DD40C560354D6D6805F45F
:101100004041890B3A4D6B5CC568B5FBF3F5056151
:1011100030BD29B12E4A526902432D4B5A6104E079
:101120002B4A526982432A4B5A61704729B1284A97
:1011300092690243264B9A6104E0254A92698243F0
:10114000234B9A61704729B1214AD2690243204B4F
:10115000DA6104E01E4AD26982431D4BDA617047AE
:1011600029B11B4AD2680243194BDA6004E0184ADD
:10117000D2688243164BDA60704729B1144A12696B
:101180000243134B1A6104E0114A12698243104B67
:101190001A61704712494039086070470F49C864A6
:1011A00070470B49C87170470948406A40F0807029
:1011B00007494862704701460020054A92680A4084
:1011C0000AB1012000E00020704701498872704791
:1011D000001002400000FFF8FFFFF6FE0000424250
:1011E0008004424200127A0000093D0026000020DF
:1011F0003600002010B50446FE48844208D1012183
:10120000C014FFF7ADFF0021E014FFF7A9FFC4E011
:10121000B4F1804F08D101210846FFF7AEFF00214D
:101220000120FFF7AAFFB8E0F348844208D101216A
:101230000220FFF7A2FF00210220FFF79EFFACE093
:10124000EE48844208D101210420FFF796FF0021D7
:101250000420FFF792FFA0E0E948844208D1012171
:101260000820FFF78AFF00210820FFF786FF94E09F
:10127000E448844208D101211020FFF77EFF0021BD
:101280001020FFF77AFF88E0DF48844208D101216F
:101290002020FFF772FF00212020FFF76EFF7CE087
:1012A000DA48844208D101214014FFF759FF002198
:1012B0006014FFF755FF70E0D548844209D1012141
:1012C000C804FFF74DFF00214FF40020FFF748FF4F
:1012D00063E0D048844209D101210805FFF740FFAF
:1012E00000214FF48010FFF73BFF56E0CA488442CC
:1012F00009D101214805FFF733FF00214FF4001009
:10130000FFF72EFF49E0C548844208D10121402063
:10131000FFF733FF00214020FFF72FFF3DE0C048DB
:10132000844208D101218020FFF727FF002180207F
:10133000FFF723FF31E0BB48844208D1012180152B
:10134000FFF71BFF0021A015FFF717FF25E0B648A8
:10135000844209D101210804FFF702FF00214FF464
:101360008030FFF7FDFE18E0B048844209D101212A
:101370004804FFF7F5FE00214FF40030FFF7F0FEC0
:101380000BE0AB48844208D101218804FFF7E8FE56
:1013900000214FF48020FFF7E3FE10BD00220288F9
:1013A000944B98420ED0994B98420BD0B0F1804F9D
:1013B00008D0914B984205D0904B984202D0904B68
:1013C000984204D14FF68F731A404B881A438D4BC5
:1013D000984207D08C4B984204D04FF6FF431A40F6
:1013E000CB881A4302808B8883850B880385814BC9
:1013F00098420BD0854B984208D08B4B984205D031
:101400008A4B984202D08A4B984201D10B7A0386CC
:1014100001238382704770B5002400220023058CCD
:101420004FF6FE7635400584028C8388048B4FF698
:101430008F752C40B51E2C400D882C43751E2A40FC
:101440000D892A434D882A436A4DA8420BD06F4D1F
:10145000A84208D0744DA84205D0744DA84202D0CD
:10146000734DA84213D14FF6F7752A404D892A4390
:101470004FF6FB752A408D882A434FF6FF652B40B7
:101480004FF6FF552B408D892B43CD892B4383800D
:101490000483CD888586028470BD70B50024002247
:1014A0000023058C4FF6EF7635400584028C838847
:1014B000048B48F6FF752C404FF6FF452C400D88F5
:1014C0004FF6FF7606EA05252C434FF6DF752A40D6
:1014D0000D8906EA05152A434D8806EA05152A43B3
:1014E000444DA84202D0494DA8421DD14FF67F7508
:1014F0002A404D894FF6FF7606EA05152A434FF636
:10150000BF752A408D8806EA05152A434FF6FF3538
:101510002B404FF2FF752B408D8906EA85052B4342
:10152000CD8906EA85052B4383800483CD88058712
:10153000028470BD70B5002400220023058C4FF694
:10154000FF6635400584028C8388848B4FF68F7547
:101550002C404FF6FC752C400D882C434FF6FF5560
:101560002A400D894FF6FF7606EA05252A434D8865
:1015700006EA05252A431F4DA84202D0234DA84262
:101580001DD14FF2FF752A404D894FF6FF7606EACE
:1015900005252A434FF6FF352A408D8806EA0525A2
:1015A0002A434EF6FF752B404DF6FF752B408D8973
:1015B00006EA05152B43CD8906EA05152B438380E2
:1015C0008483CD888587028470BD70B50022002396
:1015D0000024058C4EF6FF7635400584038C848804
:1015E000828B48F6FF752A404FF6FF452A400D884A
:1015F00020E00000002C01400004004000080040F2
:10160000000C004000100040001400400034014075
:10161000004C0140005001400054014000180040BF
:10162000001C0040002000400040014000440140F8
:10163000004801404FF6FF7606EA05252A434DF69D
:10164000FF752B400D8906EA05352B434D8806EAC8
:1016500005352B43FA4DA84202D0FA4DA84208D1D5
:101660004BF6FF752C408D894FF6FF7606EA8515FF
:101670002C4384808283CD88A0F84050038470BDC1
:10168000828B4FF2FF331A408283828B4FF6FF73B7
:1016900003EA01231A4382837047F0B50C461546CE
:1016A000002200210026078C4EF6FF7C07EA0C077B
:1016B0000784828B018C4FF6FF7707EA043640F6E9
:1016C000FF473A404FF6FF7707EA05273A434FF6C0
:1016D000FF7707EA03373A43D94FB8420ED0D94FC4
:1016E000B8420BD0B0F1804F08D0D74FB84205D0E8
:1016F000D64FB84202D0D64FB84206D14DF6FF774A
:10170000394046F48057394305E047F6FF573940E2
:1017100044F48057394382830184F0BD828B4FF6B5
:10172000F3731A408283828B0A4382837047F0B539
:101730000C461546002200210026078C4FF6FF6C50
:1017400007EA0C070784828B018C4FF6FF7707EAC4
:1017500004264FF60C773A404FF6FF7707EA031757
:101760002F433A43B64FB8420ED0B64FB8420BD0D3
:10177000B0F1804F08D0B44FB84205D0B34FB84253
:1017800002D0B34FB84206D14FF6FF57394046F466
:101790008077394305E04FF2FF57394044F48077B2
:1017A000394382830184F0BD028B4FF2FF331A402C
:1017B0000283028B4FF6FF7303EA01231A4302836D
:1017C0007047F0B50C461546002200210026078C14
:1017D0004FF6EF7C07EA0C070784028B018C4FF66B
:1017E000FF7707EA041640F6FF473A404FF6FF77C7
:1017F00007EA03373A434FF6FF7707EA05273A43EC
:101800008F4FB8420ED08F4FB8420BD0B0F1804FFF
:1018100008D08D4FB84205D08C4FB84202D08C4FC3
:10182000B84206D14FF6DF77394046F0100739430A
:1018300005E04FF65F77394044F0100739430283E3
:101840000184F0BD028B4FF6F3731A400283028BC2
:101850000A4302837047F0B50C461546002200216A
:10186000068C4FF6FE773E400684028B018C4FF6C5
:101870000C7632407E1C06EA03162E433243704E2D
:10188000B0420ED06F4EB0420BD0B0F1804F08D0B6
:101890006D4EB04205D06D4EB04202D06C4EB0429B
:1018A00006D14FF6FD76314044F00106314305E0A4
:1018B0004FF6F576314044F001063143028301844E
:1018C000F0BD70B505460C465D4885420ED05D48BA
:1018D00085420BD0B5F1804F08D05B48854205D0DA
:1018E0005A48854202D05A48854200D100E000BFE4
:1018F000208850B92389A28861882846FFF7ABFF6A
:10190000E1882846FFF79EFF25E0208804280AD1B9
:101910002389A28861882846FFF753FFE18828467B
:10192000FFF742FF17E0208808280AD12389A28800
:1019300061882846FFF7FBFEE1882846FFF7EEFEA8
:1019400009E02389A28861882846FFF7A6FEE1887E
:101950002846FFF795FE70BD2DE9F04105460C467F
:1019600000260127608808B9022600E00026A0882A
:10197000012801D1022700E001272088A0B923898E
:10198000A28861882846FFF766FFE1882846FFF7AE
:1019900059FF23893A4631462846FFF712FFE1886E
:1019A0002846FFF701FF13E02389A28861882846B3
:1019B000FFF707FFE1882846FFF7F6FE23893A463E
:1019C00031462846FFF747FFE1882846FFF73AFFF0
:1019D000BDE8F0810A884B881A438B881A43CB886C
:1019E0001A430B891A434B891A438B891A43A0F86F
:1019F000442070474FF6FF71818000210180C18033
:101A00004180017270470021018041808180C18046
:101A1000018141818181C181704700210180418024
:101A2000012181800021C180018170470021018056
:101A300041808180C18001814181818170470000A6
:101A4000002C014000340140000400400008004028
:101A5000000C004021B1028842F00102028004E043
:101A600002884FF6FE731A400280704731B1B0F819
:101A7000442042F40042A0F8442005E0B0F844209D
:101A8000C2F30E02A0F8442070471AB183890B43B9
:101A9000838102E083898B43838170478182704711
:101AA00041EA0203A0F8483070471AB183890B431A
:101AB000838102E083898B438381704701894FF6DC
:101AC000F8721140018170470A46002101894FF6E2
:101AD0008F73194011430181704730B504460D469C
:101AE00029462046FFF7F0FF208940F007002081BB
:101AF00030BD2DE9F04104460D4616461F46602DC7
:101B000006D13B46012231462046FFF75AFE05E04A
:101B10003B46012231462046FFF79DFE29462046DE
:101B2000FFF7D2FF208940F007002081BDE8F08157
:101B300030B50C4600210189C9B24FF6FF7505EAA0
:101B40000325154325432943018130BD2DE9F0418B
:101B500005460E4617469846002443463A46314607
:101B60002846FFF7E5FF2C894FF6F870044044F053
:101B700007044FF68F70044044F070042C81BDE8D8
:101B8000F081F0B504460D4616461F463B463246E8
:101B900029462046FFF7CCFF208940F48040208171
:101BA000F0BD0185828270470A46002101884FF608
:101BB0008F731940114301807047F0B50C461546EC
:101BC0001E460021002200230189028B038C4FF660
:101BD000F877394021434FF6FC473A4040F201176D
:101BE0003A434FF6DD773B404FF6FF7707EA06179B
:101BF0002F433B43018102830384F0BD0A46002149
:101C0000018B4FF68F7319401143018370470A46C9
:101C10000021018B48F6FF7319404FF6FF7303EA6A
:101C200002231943018370470A460021818B4FF636
:101C30008F7319401143818370470A460021818BBD
:101C400048F6FF7319404FF6FF7303EA0223194366
:101C50008183704721B1028842F08002028004E053
:101C600002884FF67F731A400280704721B1828844
:101C700042F00402828004E082884FF6FB731A402F
:101C80008280704721B1828842F00802828004E09D
:101C900082884FF6F7731A408280704721B182889C
:101CA00042F00102828004E082884FF6FE731A40FF
:101CB000828070470A460021018B4FF6F773194066
:101CC0001143018370470A460021018B4FF2FF73D5
:101CD00019404FF6FF7303EA02231943018370474B
:101CE0000A460021818B4FF6F77319401143818317
:101CF00070470A460021818B4FF2FF7319404FF65F
:101D0000FF7303EA02231943818370470A460021C7
:101D1000018B4FF6FB7319401143018370470A464C
:101D20000021018B4FF6FF3319404FF6FF7303EA92
:101D300002231943018370470A460021818B4FF625
:101D4000FB7319401143818370470A460021818B40
:101D50004FF6FF3319404FF6FF7303EA022319438E
:101D6000818370470A460021018B4FF67F7319402B
:101D70001143018370470A460021018BC1F30E0114
:101D80004FF6FF7303EA02231943018370470A46A3
:101D90000021818B4FF67F73194011438183704777
:101DA0000A460021818BC1F30E014FF6FF7303EA4F
:101DB00002231943818370470A460021018C4FF6A4
:101DC000FD7319401143018470470A460021018CBC
:101DD0004FF6F77319401143018470470A460021FA
:101DE000018C4FF6DF7319404FF6FF7303EA0213BD
:101DF0001943018470470A460021018C4FF67F7316
:101E000019404FF6FF7303EA021319430184704728
:101E10000A460021018C4FF6FF5319404FF6FF731D
:101E200003EA02231943018470470A460021018C0A
:101E30004FF2FF7319404FF6FF7303EA0223194371
:101E4000018470470A460021018C4DF6FF7319404A
:101E50004FF6FF7303EA023319430184704730B52C
:101E6000002301248C40A3B2048C9C430484048C82
:101E700002FA01F5ADB22C43048430BD30B5002325
:101E800004248C40A3B2048C9C430484048C02FA86
:101E900001F5ADB22C43048430BD70B5034600207B
:101EA00000241846183001258D40ACB21D8CA54386
:101EB0001D8409B1082909D100EB6100056825F0EE
:101EC000700505600568154305600EE00D1FC5F33C
:101ED0004E052844056825F4E045056005684FF681
:101EE000FF7606EA02263543056070BD21B10288FF
:101EF00042F00202028004E002884FF6FD731A40AD
:101F00000280704721B1028842F00402028004E09E
:101F100002884FF6FB731A400280704721B1828815
:101F200042F08002828004E082884FF67F731A407C
:101F30008280704702884FF6F7731A400280028849
:101F40000A430280704782884FF68F731A4082805E
:101F500082880A438280704702894FF6F8731A40DC
:101F6000028102890A430281704702894FF67F731A
:101F70001A40028102890A430281704781847047B6
:101F800081857047818670470187704781877047D8
:101F9000A0F84010704702884FF6FF431A400280B5
:101FA00002880A43028070470146888E70470146C6
:101FB000088F70470146888F70470146B1F840008E
:101FC00070470146888C70470146088D704702466D
:101FD0000020138A0B400BB1012000E00020704765
:101FE000CA430282704730B5024600200023002415
:101FF000158A05EA0103958905EA010413B10CB1BC
:10200000012000E0002030BDCA430282704700007A
:1020100010B50446FB48844209D101218803FFF72B
:102020009FF800214FF48040FFF79AF832E0F6481D
:10203000844209D101214804FFF79FF800214FF4A1
:102040000030FFF79AF825E0F048844209D10121D9
:102050008804FFF792F800214FF48020FFF78DF8F5
:1020600018E0EB48844209D10121C804FFF785F844
:1020700000214FF40020FFF780F80BE0E548844290
:1020800008D101210805FFF778F800214FF48010EE
:10209000FFF773F810BD2DE9F04786B005460E46F0
:1020A0000024A24600BFA1460027B08900B100BFAE
:1020B0002F462C8A4CF6FF700440F08804432C8293
:1020C000AC894EF6F3100440B08831890843718919
:1020D00008430443AC81AC8A4FF6FF400440B0890A
:1020E0000443AC8201A8FEF7B4FFC648874202D180
:1020F000DDF810A001E0DDF80CA0A88900F4004094
:1021000040B10AEBCA0000EB0A1031684900B0FB8D
:10211000F1F807E00AEBCA0000EB0A103168890009
:10212000B0FBF1F86420B8FBF0F004012009642151
:1021300001FB1089A88900F4004040B1322000EB77
:10214000C900B0FBF1F000F00700044308E03220C2
:1021500000EB09106421B0FBF1F000F00F00044324
:102160002C8106B0BDE8F0874FF4165101600021C4
:102170008180C18001810C214181002181817047D2
:1021800010B502460020108A4FF2FF0318400B885A
:102190004C8823438C882343CC88234318431082E4
:1021A00010BD0021018041808180C180704721B134
:1021B000828942F40052828104E082894DF6FF73E5
:1021C0001A4082817047F0B503460024002600259E
:1021D000002040F66A17B94200D100BF1846C1F38B
:1021E000421401F01F06012707FA06F5012C01D160
:1021F0000C3004E0022C01D1103000E014301AB190
:1022000007682F43076002E00768AF430760F0BD2F
:102210001AB1838A0B43838202E0838A8B438382D1
:102220007047028A4FF6F0731A400282028A0A430C
:102230000282704782894FF2FF731A40828182893D
:102240000A438281704721B1828942F00202828171
:1022500004E082894FF6FD731A4082817047028A3A
:102260004FF6DF731A400282028A0A4302827047E5
:1022700021B1028A42F48042028204E0028A4BF6D3
:10228000FF731A4002827047C1F3080282807047D0
:1022900001468888C0F308007047818941F0010138
:1022A00081817047028BD2B20283028B42EA012203
:1022B00002837047028B02F47F420283028B0A433F
:1022C0000283704721B1828A42F02002828204E0B8
:1022D000828A4FF6DF731A408282704721B1828A68
:1022E00042F01002828204E0828A4FF6EF731A40B5
:1022F0008282704721B1828A42F00802828204E021
:10230000828A4FF6F7731A408282704721B1828920
:1023100042F40042828103E08289C2F30E0282818C
:10232000704721B1828A42F40062828204E0828A8C
:102330004FF2FF731A4082827047828A4FF6FB7316
:102340001A408282828A0A438282704721B1828A3D
:1023500042F00202828204E0828A4FF6FD731A4044
:102360008282704702460020B1F5007F00D100BF95
:1023700013880B400BB1012000E00020704701F4EE
:102380000072B2F5007F00D100BFCA4302807047DF
:1023900070B50246002400230025002040F66A168E
:1023A000B14200D100BFC1F3421501F01F03012665
:1023B00006FA03F3012D02D19689334006E0022D7F
:1023C00002D1168A334001E0968A33400C1201266E
:1023D00006FA04F41688344013B10CB1012000E071
:1023E000002070BD10B50022002340F66A14A142FF
:1023F00000D100BF0A1201249440A3B2DC43048040
:1024000010BD00000038014000440040004800407A
:10241000004C0040005000402DE9FF5F06460D468D
:1024200093464FF000082F46A9462C46AA4606B10F
:1024300025B94FF0FF3004B0BDE8F09F4FF0000821
:1024400055E0701C10F8080012284AD2DFE800F0AE
:102450001D1E1F49492021222349494949242E3D57
:102460002A093878594908700846017858A002F0BE
:102470003BFB56480078012803D100205B490860E7
:1024800002E00120594908602CE02BE02AE029E015
:1024900028E027E026E025E099F8001054A002F09B
:1024A00023FB1FE055A002F01FFB1BE0A17962791E
:1024B0002379A068CDE90032CDE90210E378A27853
:1024C000218853A002F010FB0CE05CA002F00CFB92
:1024D0005FA002F009FB9AF8001061A002F004FB73
:1024E00000E000BF00BF08F1010000F0FF083078F5
:1024F0004045A6DC00209EE734480021017070476B
:102500005C480068401C5B49086070475948006897
:102510007047012080F3138800BF00BF5648006851
:1025200000F4E06055490843001D53490860BFF3BB
:10253000408F00BF00BFFEE7F8B505460E4650A02D
:102540000068009000240DB9601EF8BD00241BE057
:10255000295D4C48FFF798FE00BF40214948FFF72E
:1025600001FF0028F9D0022C0DD3285DFF280AD1E5
:1025700055214448FFF788FE00BF40214148FFF73E
:10258000F1FE0028F9D0641CB442E1D3FFF7BEFF8E
:102590000746324639463CA002F0A6FA00240DE078
:1025A000295D3EA002F0A0FA022C06D3285DFF2888
:1025B00003D1552139A002F097FA641CB442EFD33D
:1025C00038A002F091FA3046BFE70000000000207A
:1025D0004576743A204556454E545F4C45446F6EDF
:1025E0006F6666202564200A0000000094012342E3
:1025F000525353492025640A000000005452414EB2
:1026000053504152454E545F44415441200A00000A
:10261000574946495F4E5450203A205B25642D258A
:10262000642D256420253032643A253032643A2501
:102630003032645D5B25645D200A00004D4F4455D7
:102640004C4520494E464F202E2E2E0A00000000F9
:10265000574946204D4F44554C45202E2E2E0A00FA
:102660006D6F64756C6554797065203A205B2564E4
:102670005D200A003C0000200CED00E00000FA059F
:1026800055000000004800404D43553257694669E7
:102690005B2534643A2534645D3A20002530327875
:1026A000200000000A00000070B504460D46002618
:1026B00024B9F6A002F018FA701E70BD2A46214611
:1026C000FA4802F08DF90646AE4205D0F8A002F0B5
:1026D0000BFA4FF0FF30F0E73046EEE710B5044656
:1026E0002CB9FAA002F000FA4FF0FF3010BD002024
:1026F00020606060FF20207060700020F6E770B5F9
:1027000004460D462CB9FCA002F0EEF94FF0FF3064
:1027100070BD1E21FE4802F0BDFB2A462146FC4842
:10272000801C02F038FBFA483938A0F851500121DA
:1027300080F83A10FFF7EAFEF5493939C1F853003D
:102740000020E5E7024600210020137803F0010392
:1027500003B1491C09B9002007E001F007030BB9D8
:10276000C80802E0012303EBD10070472DE9F843CC
:1027700005460C4616460027B846B946002000908C
:1027800028788DF800000DB104B136B9E1A002F04F
:10279000ABF94FF0FF30BDE8F8836846FFF7D2FF92
:1027A0000746781C81449DF8000000F0010098B1B4
:1027B00011212278601C81542078401C20703B46F7
:1027C0006A1C0121404601F06EFF08B1012000E0C3
:1027D0000020307008F101080020DCE72DE9F0410D
:1027E00004460D460026002704B135B9D4A002F0F6
:1027F0007BF94FF0FF30BDE8F081FFF787FE074619
:1028000028782178884208D0D7A002F06DF90120FD
:10281000BF49393981F8A3000126012E03D1FFF702
:1028200075FED74908603046E5E72DE9F8430646CE
:102830000F4690464FF0000900240025002000902C
:10284000B348393890F8A3008DF800006D1C06B12C
:1028500037B9CCA002F048F94FF0FF30BDE8F8835B
:10286000AB48393890F8A30000F0010038B1337854
:102870000DEB05020121204601F0D7FE641C14B9BE
:102880004FF0000908E004F0070010B94FEAD4093E
:1028900002E0012000EBD409B9F1010F04D90DEBDE
:1028A0000500494601F05CFE4D4499483938002145
:1028B00080F8A310C8F8005069463846D8F80020C0
:1028C00002F069FA0020C9E72DE9F04780460C467E
:1028D00017461D46089E94F800900CB105B136B914
:1028E000B4A002F001F94FF0FF30BDE8F087B8F175
:1028F000000F63D1132186481E3002F0CBFAB9F1E4
:10290000050F39D0B9F1110F03D0B9F1120F53D11E
:1029100011E0B4A002F0E8F87D4A7132A2F153014F
:10292000601CFFF723FF0120794939390870002521
:102930000020306041E0B4A002F0D6F87448393885
:10294000617880F8A31000F1A602911EAB30FFF76A
:102950006CFF68B96E483938D0F8A62000F1A401A0
:10296000681C02F018FA132028700320306002E07F
:102970004FF0FF30B9E720E07A1E611C644822382E
:1029800002F009FA781E62493939C1F82D00102188
:102990005F48393890F8572058308154583890F8AB
:1029A0005700401C5A49393981F8570003200870F4
:1029B00000250020306000E000BF00BF002094E749
:1029C0002DE9F04F8DB006468B46174699460020FC
:1029D0000C9082468046002501ACBBF1000F06D169
:1029E00092A002F081F8681E0DB0BDE8F08FB9F139
:1029F000010F06D196F8088008F10600384485B228
:102A000001E0781D85B22B46424639468DA002F082
:102A10006BF8FF2004F8010B04F8010B281204F8EE
:102A2000010B04F8015B3079401C04F8010B70794C
:102A300004F8010B002004F8010B04F8019B4FF08F
:102A4000080AB9F1010F0DD104F8018B0AF1010A4E
:102A500001A901EB0A00424606F1090102F09BF9C7
:102A6000C244444437B101A901EB0A003A46594631
:102A700002F091F9291D01A801F0A6FB0146E81C0E
:102A800001AA1154291D01A8F0E000004552523A54
:102A90002067697A5075744461746120627566209C
:102AA000697320656D707479200A00001602002099
:102AB0004552523A204661696C656420746F2072F9
:102AC000625772697465200A000000004552523A4C
:102AD0002067697A50726F746F636F6C48656164C8
:102AE000496E6974206865616420697320656D7042
:102AF0007479200A000000004552523A2064617443
:102B00006120697320656D707479200A00000000EF
:102B10005501002067697A44617461506F696E7471
:102B2000324576656E74204572726F72202C204992
:102B30006C6C6567616C20506172616D0A00000009
:102B400067697A436865636B5265706F727420457C
:102B500072726F72202C20496C6C6567616C20501A
:102B60006172616D0A00000076616C75654C4544C8
:102B70006F6E6F6666204368616E6765640A000069
:102B80004400002067697A44617461506F696E7413
:102B900073325265706F7274446174612045727251
:102BA0006F72202C20496C6C6567616C20506172DB
:102BB000616D0A0067697A50726F746F636F6C4958
:102BC000737375656450726F6365737320457272B9
:102BD0006F72202C20496C6C6567616C20506172AB
:102BE000616D0A00414354494F4E5F454C4F4E477B
:102BF0004154455F434F4E54524F4C5F44455649F4
:102C00004345200A00000000414354494F4E5F45B0
:102C10004C4F4E474154455F524541445F444556F1
:102C20005F535441545553200A0000005B455252F3
:102C30005D202064617461204973204E756C6C20A6
:102C40000A0000006C656E203D202564202C207356
:102C50004469644C656E203D202564202C646174B9
:102C6000615F6C656E203D2025640A00FFF764FCFF
:102C70000C900C98002806DAF7A00C9901F034FFAC
:102C80006FF00100B0E60020AEE62DE9F04387B01A
:102C900006460F4690464FF0000901AC08F10600C9
:102CA00085B23FB9F2A001F01FFF4FF0FF3007B02F
:102CB000BDE8F083FF2004F8010B04F8010B281293
:102CC00004F8010B04F8015B052004F8010BF2483D
:102CD00090F83110D0F83100401CEF4AC2F83100B2
:102CE00004F8011B002004F8010B04F8010B04F8A0
:102CF000016B424639460DF10D0002F04CF8291DDA
:102D000001A801F061FA0146E81C01AA1154291D2D
:102D100001A8FFF711FC8146B9F1000F06DA494618
:102D2000DEA001F0E1FE6FF00100C0E7291D01A85F
:102D3000FFF7E5FC0020BAE770B50446FFF7E6FBB5
:102D400005460026D449AB312046FFF747FD012850
:102D500015D1D9A001F0C8FECF4AA632911E204657
:102D6000FFF763FD38B9CC48D0F8A62000F1A401E4
:102D70001420FFF78AFFC848217880F8AB10D448A8
:102D8000B5FBF0F100FB115008BBD2480068A84227
:102D90001DD0D1A001F0A8FEFF220121BE48A33022
:102DA00002F070F8BC4AA632911E2046FFF73DFDA6
:102DB00038B9B948D0F8A62000F1A4011420FFF7D3
:102DC00064FFB548217880F8AB10C24805603046F2
:102DD00001F054FE70BD2DE9FE4F80460E461746A9
:102DE0004FF0000B002002908146824600253446B9
:102DF0000090B8F1000F01D006B137B9BCA001F0C6
:102E000073FE4FF0FF30BDE8FE8F404601F06CFDD1
:102E100000F0FF0ABAF1000F02D14FF0FF30F2E7E5
:102E20004FF000095DE0012201A9404601F087FD55
:102E30008346BBF1000F52D0B9480078FF281FD15C
:102E40009DF80400FF281BD1B648007848B9FF2040
:102E5000207060700220B44908800120B1490870D8
:102E600034E0B1480088042830DDAF480088A8422B
:102E70002CD0FF20207060700220AB49088025E034
:102E8000A7480078FF2803D19DF8040055281DD0DD
:102E9000A4480078012819D19DF80400A2490988A6
:102EA0006054A1480088401C9F490880084600885B
:102EB00004280BDD0094009C608801F098F9001D47
:102EC00085B299480088A84200D10CE09DF8040022
:102ED0009349087095480078401C9449087009F19E
:102EE0000109D1459FDB00BF8F480088042823DDFE
:102EF0008D480088A8421FD18B480188204601F0E8
:102F000063F9029088480088401E215C0298814243
:102F10000FD12A462146304601F03DFF3D8000207A
:102F20008049087080490880804908707C49087091
:102F300069E76FF0010066E7012064E710B500243F
:102F4000554890F83A0000B910BD79A001F0CCFDC9
:102F50005148B0F851103B30FFF7EEFA04464E48A6
:102F6000B0F85100A04202D079A001F0BDFDFFF7FA
:102F7000CDFA4949C1F8530000BFE5E770B50446F2
:102F8000454D3B3534B9AFF2904001F0ADFD4FF007
:102F9000FF3070BD2879401C2179884204D11E2160
:102FA0003D48393001F076FF0020F2E73EB5044697
:102FB000002524B96CA001F097FD681E3EBD206875
:102FC0000090606801909DF80400401CC0B28DF82C
:102FD0000400052001F00BF9ADF802000921684654
:102FE00001F0F2F88DF8080009216846FFF7A4FA0D
:102FF0000546002D03DA294628A001F075FD284674
:10300000DCE710B5244890F83A00012821D1224885
:1030100090F8390002281DDAFFF778FA1E49D1F836
:103020005310401AC82814D9FFF770FA04461A48FA
:1030300090F83930D0F85320214656A001F054FDC5
:10304000FFF77CFF144890F83900401C124981F8C2
:103050003900B7E0B2E000007561727420777269E0
:103060007465206572726F72202564200A0000006A
:1030700067697A5265706F72744461746120457239
:10308000726F72202C20496C6C6567616C205061F6
:1030900072616D0A000000001C0100204552523A86
:1030A0002075617274207772697465206572726F21
:1030B00072202564200A00006368616E6765642CD5
:1030C000207265706F727420646174610A00000080
:1030D000C027090048000020496E666F3A2036304C
:1030E0003053207265706F727420646174610A00DD
:1030F00067697A50726F746F636F6C4765744F6E57
:10310000655061636B6574204572726F72202C206C
:10311000496C6C6567616C20506172616D0A0000DA
:10312000500000204C0000204E00002051000020E4
:103130005761726E696E673A2074696D656F757458
:103140002C20726573656E642064617461200A00CE
:103150004552523A20726573656E642064617461F1
:10316000206572726F720A004552523A2067697A7E
:1031700050726F746F636F6C436F6D6D6F6E4163F0
:103180006B206461746120697320656D70747920AF
:103190000A0000005761726E696E673A67697A507B
:1031A000726F746F636F6C526573656E64446174A3
:1031B000612025642025642025640A001E21F3482F
:1031C00001F068FE10BD30B59DB0044600252CB955
:1031D000EFA001F089FC681E1DB030BD6846FFF706
:1031E0007DFA02208DF8040060798DF80500F4A1C5
:1031F00003C9CDE90201F5A103C9CDE90401F6A196
:1032000003C9CDE90801F7A103C9CDE906012022D0
:10321000F7A10AA801F004FE2022FEA10DF1520040
:1032200001F0B9FD0020CDF84A00CDF84E009DF820
:1032300051008DF851009DF8510040F002018DF8C9
:103240005110002000F0D3FFADF848006F2000F0CF
:10325000CEFFADF802007321684600F0B5FF8DF88F
:10326000720073216846FFF767F90546002D04DAFE
:103270002946AFF2D81001F037FC2846ACE7FEB57E
:1032800004460E46002524B9EBA001F02DFC681E73
:10329000FEBD6846FFF722FA12208DF8040060791F
:1032A0008DF80500062000F0A2FFADF802008DF8B1
:1032B00008600A21684600F087FF8DF809000A219E
:1032C0006846FFF739F90546002D04DA2946AFF2C2
:1032D000342001F009FC2846DAE770B5044625469B
:1032E0002CB9E0A001F000FC4FF0FF3070BDA74802
:1032F0007430A9680160E9684160298A0181A97C6C
:103300008172A0F1AD01B1F8AD0000F070FF9F49EE
:103310003939A1F8AD00D1F8B50000F075FF9B492F
:103320003939C1F8B5000E219848393890F87D2018
:103330007E3081547E3890F87D00401C93493939A5
:1033400081F87D00042008700020CFE710B5FFF75A
:10335000DDF8044600BFFFF7D9F8001BB0F5167F73
:10336000F9D9FFF7D6F810BD10B504462CB9C2A0A4
:1033700001F0BAFB4FF0FF3010BD208900F037FF9D
:103380002081C9480078C0F38000217AC1F3800110
:1033900088425ED0207AC0F3800000282DD0207AA9
:1033A00000F0010088B100217848393890F86A208F
:1033B0006B3081546B3890F86A00401C734939397E
:1033C00081F86A00B9A001F08FFB207AC0F34000B9
:1033D00000283ED001216D48393890F86A206B30C2
:1033E00081546B3890F86A00401C6849393981F87B
:1033F0006A00B6A001F078FB2BE0207A00F0010013
:1034000088B100216148393890F86A206B308154C6
:103410006B3890F86A00401C5C49393981F86A00C1
:10342000A2A001F061FB207AC0F3400088B1022124
:103430005648393890F86A206B3081546B3890F8D0
:103440006A00401C5149393981F86A00A6A001F090
:103450004BFB95480078C0F3C000217AC1F3C0014E
:10346000884230D0207AC1088F48007861F3C300C9
:103470008D490870207AC0F3C00090B10321434801
:10348000393890F86A206B3081546B3890F86A00B4
:10349000401C3E49393981F86A009AA001F024FBAA
:1034A00011E004213948393890F86A206B30815492
:1034B0006B3890F86A00401C3449393981F86A0049
:1034C00098A001F011FB78480078C0F30010217A31
:1034D000C1F30011884230D0207A01097248007887
:1034E00061F3041070490870207AC0F3001090B1A5
:1034F00005212648393890F86A206B3081546B38A2
:1035000090F86A00401C2149393981F86A008DA081
:1035100001F0EAFA11E006211C48393890F86A20D7
:103520006B3081546B3890F86A00401C1749393968
:1035300081F86A008BA001F0D7FA5B480078C0F3ED
:103540004010217AC1F3401188421DD0207A4109F0
:103550005548007861F3451053490870207AC0F34C
:10356000401080B107210948393890F86A206B3043
:1035700081546B3890F86A00401C0449393981F84D
:103580006A0081A00EE110E11FE10000550100205A
:1035900067697A50726F746F636F6C4765744465C6
:1035A00076696365496E666F204572726F72202C72
:1035B00020496C6C6567616C20506172616D0A0016
:1035C00030303030303030340000000030303030B7
:1035D00030303032000000003033303330303030A3
:1035E0000000000030333031303130300000000056
:1035F0006437336661373161323433653464313274
:1036000061636136626331633561336534376231DA
:10361000000000006464313666663563373936323F
:1036200034663765386439346533653230636436FF
:10363000333835370000000067697A50726F746F55
:10364000636F6C4572726F72436D64204572726F66
:1036500072202C20496C6C6567616C20506172612E
:103660006D0A00004552523A204E54502069732092
:10367000656D707479200A0067697A50726F746F93
:10368000636F6C4D6F64756C6553746174757320F2
:103690004572726F72202C20496C6C6567616C20DA
:1036A000506172616D0A0000520000204F6E426F3F
:1036B000617264696E673A20536F66744150206F7F
:1036C0007220576562206D6F64650A004F6E426F0D
:1036D000617264696E673A204169724C696E6B2051
:1036E0006D6F64650A0000004F6E426F617264691D
:1036F0006E673A2053746174696F6E206D6F6465F4
:103700000A00000057694669207374617475733A42
:1037100020696E2062696E64696E67206D6F6465F2
:103720000A00000057694669207374617475733A22
:10373000206F75742062696E64696E67206D6F64B6
:10374000650A000057694669207374617475733A9D
:1037500020636F6E6E656374656420726F75746547
:10376000720A000057694669207374617475733A70
:1037700020646973636F6E6E656374656420726F35
:10378000757465720A000000576946692073746198
:103790007475733A20636F6E6E6563746564206D33
:1037A000326D0A0001F0A0F90FE00821FC4890F802
:1037B0006A206B3081546B3890F86A00401CF849DD
:1037C00081F86A00F7A001F08FF9FE484078C0F355
:1037D000C001607AC0F3C00081422CD0607AC10879
:1037E000F848407861F3C300F6494870607AC0F346
:1037F000C00080B10B21EA4890F86A206B308154F8
:103800006B3890F86A00401CE54981F86A00EEA028
:1038100001F06AF90FE00C21E14890F86A206B3062
:1038200081546B3890F86A00401CDD4981F86A00C9
:10383000ECA001F059F9E3484078C0F30011607A38
:10384000C0F3001081422CD0607A0109DD48407835
:1038500061F30410DB494870607AC0F3001080B156
:103860000921CF4890F86A206B3081546B3890F86A
:103870006A00401CCA4981F86A00E2A001F034F9EC
:103880000FE00A21C64890F86A206B3081546B38EB
:1038900090F86A00401CC24981F86A00E0A001F07B
:1038A00023F90D21BE4890F86A206B3081546B38A3
:1038B00090F86A00401CBA4981F86A00607A00F00A
:1038C000070081F8AC00084690F8AC10DBA001F0CE
:1038D0000BF90220B249087000204DE510B52C20EC
:1038E000DA490860DA48C860084600F0DFFF18B916
:1038F000D8A001F0F9F802E0DBA001F0F5F8FA2118
:10390000A74801F0C7FA10BD30B587B005460024BE
:10391000062D7DD2DFE805F003316193C1F001A8E7
:10392000FEF7DCFE0B208DF808009D4890F8311062
:10393000D0F83100401C9A4AC2F83100C8B28DF864
:103940000900052000F053FCADF80600092101A88C
:1039500000F03AFC8DF80C00092101A8FEF7ECFDFF
:103960000446002C04DA2146AFF6D00001F0BCF882
:10397000092101A8FEF7C3FEF0E004A8FEF7AEFEA1
:1039800009208DF81400864890F83110D0F83100E5
:10399000401C834AC2F83100C8B28DF815008DF87A
:1039A0001850062000F023FCADF812000A2104A8EC
:1039B00000F00AFC8DF819000A2104A8FEF7BCFDEE
:1039C0000446002C04DA2146AFF6301001F08CF8E2
:1039D0000A2104A8FEF793FEC0E004A8FEF77EFECD
:1039E00009208DF814006E4890F83110D0F831009D
:1039F000401C6B4AC2F83100C8B28DF815008DF832
:103A00001850062000F0F3FBADF812000A2100E088
:103A1000A0E004A800F0D8FB8DF819000A2104A842
:103A2000FEF78AFD0446002C04DA2146AFF6941016
:103A300001F05AF80A2104A8FEF761FE8EE001A801
:103A4000FEF74CFE13208DF80800554890F8311011
:103A5000D0F83100401C524AC2F83100C8B28DF88B
:103A60000900052000F0C3FBADF80600092101A8FC
:103A700000F0AAFB8DF80C00092101A8FEF75CFDFF
:103A80000446002C04DA2146AFF6F01001F02CF8C1
:103A9000092101A8FEF733FE60E001A8FEF71EFE33
:103AA00015208DF808003E4890F83110D0F831000C
:103AB000401C3B4AC2F83100C8B28DF8090005200D
:103AC00000F095FBADF80600092101A800F07CFB91
:103AD0008DF80C00092101A8FEF72EFD0446002CEC
:103AE00004DA2146AFF64C2000F0FEFF092101A8C0
:103AF000FEF705FE32E0FFE701A8FEF7EFFD292003
:103B00008DF80800264890F83110D0F83100401C9C
:103B1000234AC2F83100C8B28DF80900052000F030
:103B200066FBADF80600092101A800F04DFB8DF8F9
:103B30000C00092101A8FEF7FFFC0446002C04DA62
:103B40002146AFF6A82000F0CFFF092101A8FEF71B
:103B5000D6FD03E049A000F0C7FF00BF00BF20462C
:103B600007B030BD3EB500246846FEF7B7FD17200C
:103B70008DF804000A4890F83110D0F83100401C4C
:103B8000074AC2F83100C8B28DF80500052000F0E0
:103B90002EFBADF802000921684600F015FB79E024
:103BA0001C01002057694669207374617475733A6B
:103BB00020646973636F6E6E6563746564206D3233
:103BC0006D0A000052000020576946692073746135
:103BD0007475733A2061707020636F6E6E656374E4
:103BE0000A00000057694669207374617475733A5E
:103BF000206E6F2061707020636F6E6E6563740A53
:103C00000000000057694669207374617475733A47
:103C100020696E2074657374206D6F64650A0000FE
:103C200057694669207374617475733A206F7574AF
:103C30002074657374206D6F64650A005253534994
:103C4000206973202564200A00000000160200206D
:103C500026020020726243726561746520537563A9
:103C600063657373200A0000726243726561746554
:103C7000204661696C64200A000000004552523AF7
:103C8000204366674D6F6465206572726F72210A0A
:103C9000000000008DF8080009216846FEF74CFC82
:103CA0000446002C03DA2146ECA000F01DFF092198
:103CB0006846FEF724FD3EBD3EB500246846FEF78B
:103CC0000DFD21208DF80400EC4890F83110D0F85B
:103CD0003100401CE94AC2F83100C8B28DF8050035
:103CE00000208DF80800062000F081FAADF80200EF
:103CF0000A21684600F068FA8DF809000A21684632
:103D0000FEF71AFC0446002C03DA2146D3A000F08B
:103D1000EBFE0A216846FEF7F2FC3EBD70B5044694
:103D200025462CB9D6A000F0DFFE4FF0FF3070BD65
:103D3000412205F10801D148B93001F02CF80F21DA
:103D4000CE4890F8902091308154913890F89000AE
:103D5000401CCA4981F89000052008700020E6E761
:103D60002DE9F0478EB0064600270025002002907E
:103D7000019000248146804636B9C5A000F0B4FE0B
:103D8000601E0EB0BDE8F087FFF73BF902AABB4901
:103D9000491CC948FFF71FF80746002F73D1C7A079
:103DA00000F0A2FEFEF7B2FB8246BDF808205146A5
:103DB000C7A000F099FE002507E0B048401C415D17
:103DC000C8A000F091FE681C85B2BDF808008542CD
:103DD000F3DBAFF2F41000F087FEA84C641C2079EE
:103DE0000F2851D00ADC0E2874D2DFE800F07316D9
:103DF000731A7373443973734573463D182854D04E
:103E000006DC112849D0142848D0162862D135E0A4
:103E1000222854D02A285DD131E02046FFF7D3F97B
:103E200060E0E279A179B1A000F05EFE01A8009007
:103E300008F10900BDF808301A1A9048093000EB63
:103E4000080103AB4846FEF73FFD40B9E37903A9FB
:103E50002046019AFEF7B4FDA8A000F045FE41E01F
:103E60002046FFF7A3F83DE02046FFF79FF82046E5
:103E7000FFF77AFA36E000BF00BF00BF00BF204660
:103E8000FFF77CF82EE02EE02046FFF78FF89EA08B
:103E900000F02AFEFFF75AFA24E023E02046FFF75D
:103EA0006DF89EA000F020FE1CE02046FFF766F8AB
:103EB0002046FFF712FAA1A000F016FE12E02046FD
:103EC000FFF75CF82046FFF729FFA2A000F00CFEE8
:103ED00008E0FFE702212046FFF7D1F9A4A000F097
:103EE00003FE00BF0EE017F1020F0BD1634C641C00
:103EF00001212046FFF7C3F9A3A000F0F5FD6FF004
:103F000001003EE75D48007806284BD2DFE800F06C
:103F10004A0312212C3B0020584908700122AA3183
:103F2000A1F15300FEF778FA13215448573000F0FE
:103F3000B1FF38E00020514908700122AC31A1F1F5
:103F40004200FEF769FA13214C486A3000F0A2FFE4
:103F500029E00020494908700846D0F82D20173183
:103F60005730FEF759FA1EE00020444908700C2231
:103F7000AD31A1F13000FEF74FFA13213F487D30FB
:103F800000F088FF0FE000203C4908704122B93161
:103F9000A1F12900FEF740FA41213848903000F0A5
:103FA00079FF00E000BF00BF3046FEF7C5FE0020ED
:103FB000E7E62DE9F04186B006460F464FF00008CF
:103FC0006C46B81D85B23EB975A000F08DFD4FF06E
:103FD000FF3006B0BDE8F081FF2004F8010B04F8C3
:103FE000010B281204F8010B04F8015B052004F80A
:103FF000010B224890F83110D0F83100401C1F4AC4
:10400000C2F8310004F8011B002004F8010B04F889
:10401000010B062004F8010B3A4631460DF1090068
:1040200000F0B9FE291D684600F0CEF80146E81CF4
:104030000DF80010291D6846FEF77EFA8046B8F19B
:10404000000F04DA4146AFF6AC7000F04DFD291DBB
:104050006846FEF754FB0020BBE700004552525B68
:104060004E54505D3A2075617274207772697465A0
:10407000206572726F72202564200A001C010020E6
:104080004E545020697320656D707479200A0000C9
:1040900047697A7769747348616E646C652045720C
:1040A000726F72202C20496C6C6567616C205061C6
:1040B00072616D0A0000000016020020476574203E
:1040C0004F6E65205061636B6574210A000000002B
:1040D00057694669324D43555B2534643A2534644B
:1040E0005D3A20002530327820000000666C616760
:1040F000202578202578200A0000000041636B44C9
:10410000617461203A200A007265706F72743A4DD2
:104110004355207265626F6F74210A0041636B2002
:1041200050524F44554354494F4E5F4D4F444520E4
:1041300073756363657373200A00000041636B202D
:104140004745545F555454207375636365737320FA
:104150000A00000041636B204745545F4D6F647552
:104160006C652073756363657373200A000000003B
:104170004552523A20636D6420636F646520657216
:10418000726F72210A0000004552523A206368653E
:10419000636B2073756D206572726F72210A000067
:1041A0005B4552525D2067697A7769747350617319
:1041B000737468726F7567684461746120457272C8
:1041C0006F72200A0000000010B502460024002390
:1041D00002B109B9002010BD022303E0D05C2044E5
:1041E000C4B25B1C481E9842F8D82046F3E701B5DC
:1041F00081B000200090694601AA507808701078BC
:104200004870BDF800000CBD0146080601F47F426D
:1042100040EA022001F47F0240EA122040EA1160E5
:10422000704710B5024600230024302A05DB392AE6
:1042300003DCA2F13000C3B20EE0412A05DB462ABE
:1042400003DCA2F13700C3B206E0612A04DB662A70
:1042500002DCA2F15700C3B2302905DB392903DCA7
:10426000A1F13000C4B20EE0412905DB462903DC90
:10427000A1F13700C4B206E0612904DB662902DC43
:10428000A1F15700C4B204EB0310C0B210BD70B569
:10429000044600250026204600F05EFD06460CB9C7
:1042A000681E70BD002505E0605D302801D000204B
:1042B000F7E76D1CB542F7D30120F2E72DE9F04393
:1042C000034600BF0025002400260027012901D055
:1042D00002290DD1A3F1010C4FF06408BCFBF8F4E6
:1042E000BCFBF8F908FB19C501F10C06174609E0FB
:1042F0004FF0640CB3FBFCF4B3FBFCF80CFB18357B
:104300000E46174606F1010C4FF01A080CFB08FC8C
:104310004FF00A08BCFBF8FC05EB950808EB940885
:104320004FF0020909FB1488C444BC44ACF10100FD
:10433000002806DB4FF0070C90FBFCF80CFB180C78
:1043400007E04FF0070C90FBFCF80CFB180C0CF18D
:10435000070C6046BDE8F08301460A46C81701EB2A
:1043600090708010A1EB800070B9642091FBF0F395
:1043700000FB131030B94FF4C87091FBF0F300FB51
:10438000131008B9012070470020FCE710B504465F
:104390002046FFF7E1FF10B14FF4B77010BD40F2B7
:1043A0006D10FBE72DE9F04190B080460E4640F2DB
:1043B000B2753022684901A800F032FD344604F598
:1043C000E14400BF11E02846FFF7E0FF074640F256
:1043D000A3207843B4EBC01F06D340F2A320784358
:1043E000A4EBC0146D1C00E001E0002CEBD100BF79
:1043F000A8B2ADF83400002518E0BDF83400FFF78E
:10440000ABFF08B11D20029001A850F8250040F232
:10441000A3214843B4EBC01F07D301A850F82500DF
:104420004843A4EBC0146D1C00E001E0002CE4D173
:1044300000BF1C200290681CC0B28DF83600012518
:1044400006E04648844202D3241A6D1C00E001E0D5
:10445000002CF6D100BFE8B28DF837004FF4616050
:10446000B4FBF0F0C0B28DF838004FF46160B4FBDB
:10447000F0F100FB11403C21B0FBF1F0C0B28DF82F
:1044800039003C20B4FBF0F100FB11408DF83A00FC
:10449000CDF83B600D98C8F800000E98C8F80400ED
:1044A000BDF83C00A8F808009DF83E0088F80A0016
:1044B00010B0BDE8F0812DE9F05F80460E469146D0
:1044C00000241CE016F814A06000401C16F800B090
:1044D000504600F0FAFA3038C5B2092D01DDE81F68
:1044E000C5B2584600F0F1FA3038C7B2092F01DDE5
:1044F000F81FC7B207EB051008F80400641C4C4510
:10450000E0DBBDE8F09FF0B5034600201EE00E5C46
:10451000F71706EB17773F1107F130050E5CF71719
:1045200006EB17773F11A6EB07173037FCB2392D92
:1045300001DDEE1DF5B2392C01DDE61DF4B203F804
:104540001050012606EB40069C55401C9042DEDBD5
:10455000002603F81260F0BDB0560008805101003B
:1045600030B502460B460021002400250AB9481E3A
:1045700030BD002108E0545C581A401E155C5554AB
:10458000581A401E1454491CB1EB530FF3D30020AA
:10459000EEE710B503460020541AB4FBF3F010BD4B
:1045A00010B50346002002FB031010BD2DE9F047B3
:1045B00004460E46154600273146284601F002F80B
:1045C0008146214600F03CFE804600F0FBFE074697
:1045D0003846BDE8F0872DE9F04704460E461546FB
:1045E0000027284600F00EFF8146214600F01EFFFE
:1045F0008046314600F0C2FD07463846BDE8F087E8
:10460000024612B102F0070028B9082901D800209B
:1046100070470120FCE702F00700C0F10800884263
:1046200001D30020F4E70120F2E72DE9F047054629
:10463000884614461E464FF00009CA46002700234C
:1046400014B9581EBDE8F087EB0841462846FFF72D
:10465000D7FF07463FB9E05C05F0070106FA01F114
:104660000843E0541DE0012F1BD1F0B205F0070113
:10467000C1F1080140FA01F905F00700C0F1080195
:10468000FF20084100EA060A581C205C40EA0900A5
:10469000591C6054E05C05F007010AFA01F1084377
:1046A000E0540020CEE72DE9F04F8FB004460F46CE
:1046B00090461D460026B246B146B34600200E90F5
:1046C000B8F1000F00D025B94FF0FF300FB0BDE8B2
:1046D000F08F4FEAD4092A46414601A800F05BFB5F
:1046E000012D09D9294601A8FFF73AFFB0F1FF3F94
:1046F00002D14FF0FF30E9E739462046FFF780FF4F
:104700008246BAF1000F0CD101A810F8090004F09C
:1047100007010841C7F10802FF2111410840064383
:1047200021E0BAF1010F1ED101A909F10100085CD5
:1047300004F00701C1F10801791AC1F10802FF2153
:10474000114100EA010B01A810F8090004F007016B
:1047500008410E9004F00700C0F108010BFA01F0C7
:1047600006430E9806433046B0E72DE9F04F8FB070
:1047700005460C4616469946189F4FF0000AD34648
:1047800000200E908046B9F1000F00D027B94FF0FD
:10479000FF300FB0BDE8F08F3A46494601A800F05F
:1047A000FAFA012F09D9394601A8FFF7D9FEB0F16D
:1047B000FF3F02D14FF0FF30EBE731462046FFF7D5
:1047C0001FFF8246BAF1000F0CD101A8405D04F032
:1047D00007010841C6F10802FF211141084040EAE3
:1047E000080821E0BAF1010F1ED101A9681C085C7C
:1047F00004F00701C1F10801711AC1F10802FF219B
:10480000114100EA010B01A8405D04F007010841D5
:104810000E9004F00700C0F108010BFA01F040EA25
:1048200008080E9848EA00084046B2E72DE9F0472C
:1048300004460D461746089E4FF00009CA46C84672
:104840001BB94FF0FF30BDE8F08739462846FFF727
:10485000D7FE8046B8F1000F07D1185D05F00701BB
:1048600006FA01F1084318551EE0B8F1010F1BD1FB
:10487000F0B205F00701C1F1080140FA01F905F0B5
:104880000700C0F10801FF20084100EA060A601C89
:10489000185C40EA0900611C5854185D05F00701D6
:1048A0000AFA01F1084318550020CCE7014611B976
:1048B0004FF0FF307047C8684860C86888600020C3
:1048C000F8E7014611B94FF0FF3070470020C8608B
:1048D00048608860086000BFF7E7014611B94FF0F3
:1048E000FF3070470868FCE700B5024612B94FF088
:1048F000FF3000BD50689168884201D10020F8E780
:1049000050689168884203D290685168401AF0E775
:104910001046FFF7E2FF51689368C91A401AE8E7AA
:1049200030B5044614B94FF0FF3030BD2046FFF7D4
:10493000D4FF05462046FFF7D7FF281AF5E72DE9F3
:10494000F04104460F461646002514B9681EBDE81E
:10495000F08117B94FF0FF30F9E76068A16888422D
:1049600014D22046FFF7C0FFB04201D9304602E022
:104970002046FFF7B9FF054661682A46384600F031
:104980000AFA6068284460602846E0E72046FFF79E
:10499000A4FF6168E268891A401AB0420AD9354614
:1049A00061682A46384600F0F6F96068284460607D
:1049B0002846CCE72046FFF790FF6168E268891A35
:1049C000451A61682A46384600F0E5F9E0686060FB
:1049D000721B79192046FFF7B2FF05442846B6E757
:1049E0002DE9F04104460F461546002604B11FB9D3
:1049F0004FF0FF30BDE8F0812046FFF791FFA8425D
:104A000002D86FF00100F5E76068A16888422AD8F3
:104A10002046FFF762FFA168E268891A461AB5428C
:104A200013D8A0682A46394600F0B5F9A068284492
:104A3000A0602046FFF751FFE1680844A168884262
:104A400001D1E068A0602846D4E7A0683246394624
:104A500000F0A1F9E068A060AA1BB9192046FFF791
:104A6000BFFF3044C6E7A0682A46394600F093F9F4
:104A7000A0682844A0602846BCE7704770B504468B
:104A8000051F00F035FA0068002C14BF446870BDA3
:104A9000002C18BFAC423CBF20466468F8D30168C4
:104AA0000A18AA4218BF456003D12A680546114476
:104AB000016028684119A1421CBF6C6070BD61682B
:104AC000696021680844286070BD10B5044600F094
:104AD00007FA0068005D000704D5DF2C02D0A4F1BE
:104AE000200010BD204610BD0FB4044910B503AA24
:104AF000029800F05BFA10BC5DF814FB2000002067
:104B000070B5044685690068C10601D5302600E00D
:104B10002026C00707D070BDD4E901213046904758
:104B2000206A401C20626D1EF6D570BD70B504462B
:104B300085690078C00707D170BDD4E90121202024
:104B40009047206A401C20626D1EF6D570BD0000A3
:104B50002DE9F0410646002410687529314616A556
:104B600010D0AFF30080002802DA404213A507E01E
:104B700031688A0701D512A502E0490704D511A5BD
:104B8000012401E0AFF3008000210A2206F124078E
:104B900009E0B0FBF2FCB0FBF2F302FB1C0030308A
:104BA00078541846491C0028F3D123462A4630463B
:104BB000BDE8F04100F0A0B9000000002D000000A9
:104BC0002B0000002000000070B504460D46214671
:104BD0001068AFF300802188090502D50F4A7A4496
:104BE00002E00E4A7A440E32002104F1240305E06B
:104BF00000F00F060009965D5E54491C0028F7D1AD
:104C000020780023000704D5702D02D009B10223BB
:104C100011322046BDE8704000F06EB9FE0A000077
:104C20002DE9F05F894604464FF0000ADFF824B111
:104C3000FB44C0F820A02046E168884700287DD0CA
:104C4000252806D0D4E901219047206A401C206223
:104C5000F1E700255F462046E168884720280646A0
:104C600007DB312E05D2B81910F8200C08B1054326
:104C7000F1E7A80701D525F00405C4F81CA000271A
:104C8000C4F818A02A2E09D0304600F059FA38B3DB
:104C900004EB8708303EC8F8186019E059F8041B87
:104CA000204604EB87029161E1688847012F0646A0
:104CB00018D1E069002820DA25F020051DE0D8F899
:104CC000180000EB800006EB40003038C8F81800F0
:104CD0002046E1688847064600F032FA0028EED107
:104CE000012F0AD02E2E08D12046E16888477F1C6C
:104CF0000646022F45F02005C4DBA069002803DA30
:104D0000404245F00105A061E80701D025F01005FB
:104D1000A6B1A6F14100192802D8203645F4006555
:104D20004A463146204625604D46FBF73BFA60B1C6
:104D3000012807D0ED1D25F0070000E007E000F195
:104D4000080978E705F1040975E730467AE7206A33
:104D5000BDE8F09FD40A000010B5431C02E010F833
:104D6000011B71B18107FAD14FF0013202C88C1AD0
:104D70008C4314EAC211F9D0C01A0A0603D0C01E2F
:104D800010BDC01A10BD0A0401D0801E10BD09025A
:104D9000FCD0401E10BD032A40F2308010F0030CFE
:104DA00000F0158011F8013BBCF1020F624498BF7E
:104DB00011F801CB00F8013B38BF11F8013BA2F11B
:104DC000040298BF00F801CB38BF00F8013B11F096
:104DD000030300F02580083AC0F0088051F8043B36
:104DE000083A51F804CBA0E80810F5E7121D5CBFA3
:104DF00051F8043B40F8043BAFF30080D20724BFD6
:104E000011F8013B11F801CB48BF11F8012B24BF69
:104E100000F8013B00F801CB48BF00F8012B7047B8
:104E200010B5203AC0F00B80B1E81850203AA0E845
:104E30001850B1E81850A0E81850BFF4F5AF5FEA79
:104E4000027C24BFB1E81850A0E8185044BF18C92C
:104E500018C0BDE810405FEA827C24BF51F8043BD3
:104E600040F8043B08BF7047D20728BF31F8023B27
:104E700048BF11F8012B28BF20F8023B48BF00F8BB
:104E8000012B704702F0FF0343EA032242EA024289
:104E900000F002B84FF000020429C0F0128010F0B8
:104EA000030C00F09780CCF1040CBCF1020F18BF8A
:104EB00000F8012BA8BF20F8022BA1EB0C0100F099
:104EC00089B85FEAC17C24BF00F8012B00F8012BF0
:104ED00048BF00F8012B7047704770477047704714
:104EE00010B500F0A1F8001D10BD00BF6502000064
:104EF000004870475C0200202DE9F0470D469946B6
:104F00009246044600F124080168880604D5E06949
:104F100021F01001216000E00120A84201DD471BC3
:104F200000E00027A1697A1902EB0900081AA061C4
:104F30002078C00602D42046FFF7E2FD002608E0F4
:104F4000D4E901211AF806009047206A401C761C1B
:104F500020624E45F4DB2078C0060AD52046FFF7D4
:104F6000CFFD06E0D4E9012130209047206A401CA3
:104F70002062381EA7F10107F4DC07E0D4E9012123
:104F800018F805009047206A401C2062281EA5F1F1
:104F90000105F3DC2046FFF7C9FD2078000602D5A5
:104FA0000220BDE8F0870120FBE70000074B70B549
:104FB0000D467B4400F041F80446284600F050F8C6
:104FC00010B14FF0FF3070BD204670BDE7B8FFFF55
:104FD0004FF0000200B5134694469646203922BF92
:104FE000A0E80C50A0E80C50B1F12001BFF4F7AFDD
:104FF000090728BFA0E80C5048BF0CC05DF804EBBF
:10500000890028BF40F8042B08BF704748BF20F82C
:10501000022B11F0804F18BF00F8012B70470000E1
:105020000048704754020020004870477402002076
:1050300001694A1C02610878704700B58FB0CDE95C
:1050400001310021059105497944CDE9031011464C
:105050006846FFF7E5FD0FB000BD0000E5FFFFFF6C
:10506000007B00F0800070477546FFF7D9FFAE4621
:1050700005006946534620F00700854618B020B564
:10508000FBF7B8FCBDE820404FF000064FF00007EA
:105090004FF000084FF0000B21F00701AC46ACE8E0
:1050A000C009ACE8C009ACE8C009ACE8C0098D464D
:1050B00070470446AFF300802046FBF791F80000EC
:1050C0004FF0013C50F8042B51F8043B9A4221D197
:1050D000A2EB0C03934313EACC1317D150F8042B23
:1050E00051F8043B9A4215D1A2EB0C03934313EA07
:1050F000CC130BD150F8042B51F8043B9A4209D140
:10510000A2EB0C03934313EACC13DBD04FF0000067
:10511000704700BFD01A01BAB1FA81F101F018014D
:1051200022FA01F0CB40C1F12001DBB2C0B2C01ABB
:105130002CFA01F3D11A914311EAC311E6D1704759
:1051400030380A2801D20120704700207047000043
:1051500010B500290AD00878002807D005487844FF
:10516000FFF7AEFF002801D0002010BD02487844B0
:1051700010BD0000DE050000D605000090EA010F1A
:1051800048BF81F0004100F12482421A3CBF801ADE
:1051900089184FEAD0524FF07F4C1CEA410FA2EB26
:1051A000D15318BF9CEA026F00F03B804FF0004CD7
:1051B0004CEA00204CEA012121FA03FC10EB0C0C14
:1051C0001ED202F1FF325FEA1C2040EBC25038BF12
:1051D00070471CF07F0F4FEA400C18BFBCF17F4FA7
:1051E00038BF7047C3F12003994008BF20F0010089
:1051F000BCF17F4F38BF7047A0F1C04000F0DDB96F
:105200004FEA3C00000A40EBC25028BF1CF0FF0FE1
:105210004FEA400CE6D018BFBCF17F4F38BF704753
:10522000EAE79CEA026F05D010EA5C0F08BF00F0C5
:105230000040704710B500F07AF900BF64FBBE3E35
:105240004FF47F0C1CEAD0121EBF1CEAD11392EA65
:105250000C0F93EA0C0F00F0858090EA010F48BF15
:1052600042F4807240F4000C41F400002CF07F41C5
:1052700020F07F4000B58142A2EB03020FF2081C30
:10528000ACEB504EC0F100009EF800E04FEA4E0E2D
:1052900000FB0EFC38BF49004FEA2C1C02F5FA0255
:1052A0000CFB0EF34FEACE1E4FEA112C4FEAC12140
:1052B0000EEB635E42EB22420EFB0CFC4FEA1C53EA
:1052C00000FB03114FEA112C4FEA01310EFB0CFCDD
:1052D0004FEADC4C00FB0C11C14228BF09184CEB13
:1052E00003335DF804EB10EB410143EBC250B2F520
:1052F0007C0F38BF704729D512F0F00F1CBF00F1AA
:10530000C04000F00040704700818283848586871A
:1053100088898B8C8D8E8F919293959697999A9C74
:105320009D9FA0A2A3A5A7A8AAACAEB0B2B3B5B7E3
:10533000B9BCBEC0C2C5C7C9CCCED1D4D7D9DCDFB9
:10534000E2E6E9ECF0F3F7FAFE0000004FEA400C69
:105350000CF1807CBCF17E4F28BF7047B0F1C0409B
:1053600000F02BB990EA010F0CEAD11348BF42F4C8
:105370008072624538BF634507D213F47F0F16D0A1
:1053800080EA010000F00040704710B500F0CFF84F
:10539000097EFC3E00F005B880EA010000F0004004
:1053A000704780EA010000F0004000F006B912F4F6
:1053B0007F0F04BF0248704780EA010000F0FDB88B
:1053C0000000C07FC10DD1F19E0206DB4FEA002331
:1053D00043F0004323FA02F07047004207D54FEA3A
:1053E0004001B1F1FE4F02D24FF00000704710B5FE
:1053F00000F09DF849922480002070476FEA200059
:1054000070470000B0FA80F310FA03F2C3F19D0375
:105410000AD0D90501EB1220530638BF704700F1BE
:10542000010008BF20F00100704700004FF47F0C1E
:105430001CEAD0121EBF1CEAD11392EA0C0F93EAA9
:105440000C0F00F0478090EA010F48BF42F48072D1
:105450004FF0004C4CEA00204CEA012102EB030221
:10546000A0FB0113A2F50002002918BF43F00103BD
:105470005B0028BF4FEA330342EB22425FEA132C62
:105480004CEBC2502EBFBCEB436FB2F57C0F7047A4
:105490004FEA036CBCF1004F08BF20F00100B2F5E9
:1054A0007C0F38BF70470BD582F0FF0212F5803FAA
:1054B000C8BF704700F1C040D8BF00F0004070473F
:1054C00000F5000C5FEA4C0C48BF7047B0F1C040DB
:1054D00000F073B890EA010F0CEAD11348BF42F410
:1054E0008072624538BF634504D280EA010000F053
:1054F0000040704710B500F01AF800BF8900013E67
:1055000000F007B800F009B85FEA410C5FEA1C6CD4
:1055100008D080EA010000F050B85FEA400C5FEA72
:105520001C6CF6D14FF00040A0F5800070470EF1E2
:10553000020E2EF0030E5EF8044B244204D44FEA10
:105540004102B2F17F4F11D84FEA4003B3F17F4FD0
:105550000CD80ED14FEAD07CB2F17F4F0CEB4C0C43
:105560000CF1020C08BF4CEBD17C04E04FF0080CAE
:1055700001E04FEAD17C0CEB4C0324FA03F404F075
:105580000704B4F1040C06D20EEB840CBDE8104005
:105590004CF0010C6047DFE80CF0070802024FF006
:1055A0000040A0F5800010BD0846420018BFD2F1AF
:1055B000807288BF00F0004010BDFF2141EAD0504A
:1055C000C005704790EA010F48BF81F000413FF5E8
:1055D000DCAD421A04D882F00042A0EB0200114474
:1055E0004FEAD0524FF07F4C1CEA410FA2EBD1534F
:1055F00018BF9CEA026F4AD04FF0004C4CEA0020E2
:105600004CEA012121FA03FCB0EB0C0C0FD412F090
:10561000FE0F36D05FEA4C001DD5001240EBC250A1
:1056200038BF70471CF03F0F18BF70470BE0A2F166
:1056300001025FEA1C2040EBC25038BF70471CF0EB
:105640007F0F18BF7047C3F12003994014BF401E5D
:1056500020F00100704780084FEA122308BF70470E
:10566000B0FA80FCA2EB0C02CCF1280C60FA0CF032
:1056700093EA122F04BF00EBC25070474FEAC37089
:105680007047130A5FEADC1008BF7047F6E79CEA30
:10569000026F04D010EA5C0F08BF0020704710B5FD
:1056A000FFF745FF40DFF63E81F000407047000005
:1056B0001F0000001C0000001F0000001E00000072
:1056C0001F0000001E0000001F0000001F0000005F
:1056D0001E0000001F0000001E0000001F00000050
:1056E0003031323334353637383941424344454618
:1056F0004030580030313233343536373839616212
:105700006364656640307800040000080000000013
:105710000000000200010000100000004C580008CA
:1057200000000020540000006C010008A058000890
:1057300054000020641400008801000810010000DB
:1057400043000000F8FFFFFF004040404040404061
:105750004040414141414140404040404040404044
:1057600040404040404040404005020202020202E8
:105770000202020202020202022020202020202037
:10578000202020020202020202029090909090904B
:105790001010101010101010101010101010101009
:1057A000101010100202020202028888888888887D
:1057B0000808080808080808080808080808080869
:1057C0000808080802020202400000000000000071
:1057D00000000000000000000000000000000000C9
:1057E00000000000000000000000000000000000B9
:1057F00000000000000000000000000000000000A9
:105800000000000000000000000000000000000098
:105810000000000000000000000000000000000088
:105820000000000000000000000000000000000078
:105830000000000000000000000000000000000068
:105840000000000000000000000000000000000058
:1058500000A24A040000000000000000010203044E
:105860000607080901000000000000000000000019
:105870000000000000000102030401020304060707
:1058800008090204060800000000000000000000F3
:105890000000000000000000000000000000000008
:0400000508000131BD
:00000001FF
